:060000000A128A11FC2F18
:100ED200F2007208831203138600071487100715A5
:100EE2000D30F100FB30F000F00B752FF10B752F78
:100EF2007A2F8312031307110800F200720883127B
:100F0200031386000710871007150D30F100FB3020
:100F1200F000F00B8A2FF10B8A2F8F2F831203130D
:100F2200071108008230F400DD30F300F30B972F35
:100F3200F40B972F9C2F38300A128A117E270A123F
:100F42008A110C300A128A117E270A128A1106307F
:100F52000A128A117E270A128A1101300A128A1194
:100F62007E270A128A1108008316031386010710CE
:100F7200871007110A128A1193270A128A11413027
:100F82000A128A1169270A128A112830831203135E
:100F920094001930831603139300111483128C1DCD
:100FA200D32FD42FCF2F8C11A03093008C1DDA2F8A
:100FB200DB2FD72F8C1193018C1DE02FE12FDD2F1A
:100FC2008C1193018C1DE62FE72FE32F8C114130FA
:100FD20093008C1DED2FEE2FEA2F8C118316031335
:100FE200111583128C1DF62FF72FF22F8C11F82F6B
:0E0FF2000A128A11002883010A128A11B52FF3
:02400E003A3F37
:00000001FF
